:020000040800F2
:1000000000000420859E000869950008719500088D
:100010007995000881950008899500080000000086
:1000200000000000000000000000000091950008A2
:100030009F95000800000000AD950008BD950008E0
:10004000D59E0008D59E0008D59E0008D59E0008C4
:10005000D59E0008D59E0008D59E0008D59E0008B4
:10006000D59E0008D59E0008D59E0008D59E0008A4
:10007000ED950008019600081596000829960008DD
:100080003D9600085196000865960008D59E000828
:10009000D59E0008D59E0008D59E0008D59E000874
:1000A000D59E0008D59E0008D59E0008D59E000864
:1000B000D59E0008D59E0008D59E0008D59E000854
:1000C000D59E0008D59E0008D59E0008D59E000844
:1000D000D59E00087996000891960008A996000818
:1000E000D59E0008D59E0008D59E0008D59E000824
:1000F000D59E0008D59E0008D59E0008D59E000814
:10010000D59E0008D59E0008D59E0008D59E000803
:10011000D59E0008D59E0008D59E0008D59E0008F3
:10012000D59E0008D59E0008D59E0008D59E0008E3
:10013000D59E0008D59E0008D59E0008D59E0008D3
:10014000D59E0008D59E0008D59E0008D59E0008C3
:10015000D59E0008D59E0008D59E0008D59E0008B3
:10016000D59E0008D59E0008D59E0008D59E0008A3
:10017000D59E0008D59E0008D59E0008000000000E
:10018000D59E0008D59E0008D59E0008D59E000883
:10019000D59E0008D59E0008D59E0008D59E000873
:0C01A000D59E0008D59E0008000000005D
:1001B00010B5054C237833B9044B13B10448AFF3A1
:1001C00000800123237010BD201A002000000000D1
:1001D0003416010808B5034B1BB103490348AFF3BC
:1001E000008008BD00000000241A00203416010819
:1001F00081F0004102E000BF83F0004330B54FEAD8
:1002000041044FEA430594EA050F08BF90EA020F44
:100210001FBF54EA000C55EA020C7FEA645C7FEAD7
:10022000655C00F0E2804FEA5454D4EB5555B8BFFA
:100230006D420CDD2C4480EA020281EA030382EA6B
:10024000000083EA010180EA020281EA0303362DFD
:1002500088BF30BD11F0004F4FEA01314FF4801CD0
:100260004CEA113102D0404261EB410113F0004FE2
:100270004FEA03334CEA133302D0524263EB430399
:1002800094EA050F00F0A780A4F10104D5F1200E37
:100290000DDB02FA0EFC22FA05F2801841F1000192
:1002A00003FA0EF2801843FA05F359410EE0A5F166
:1002B00020050EF1200E012A03FA0EFC28BF4CF097
:1002C000020C43FA05F3C01851EBE37101F000454D
:1002D00007D54FF0000EDCF1000C7EEB00006EEB5A
:1002E0000101B1F5801F1BD3B1F5001F0CD34908E4
:1002F0005FEA30004FEA3C0C04F101044FEA44523B
:1003000012F5800F80F09A80BCF1004F08BF5FEAC1
:10031000500C50F1000041EB045141EA050130BDA1
:100320005FEA4C0C404141EB0101013C28BFB1F5B3
:10033000801FE9D291F0000F04BF01460020B1FAFE
:1003400081F308BF2033A3F10B03B3F120020CDAD1
:100350000C3208DD02F1140CC2F10C0201FA0CF0AF
:1003600021FA02F10CE002F11402D8BFC2F1200C14
:1003700001FA02F120FA0CFCDCBF41EA0C019040CA
:10038000E41AA2BF01EB0451294330BD6FEA040413
:100390001F3C1CDA0C340EDC04F11404C4F12002FE
:1003A00020FA04F001FA02F340EA030021FA04F310
:1003B00045EA030130BDC4F10C04C4F1200220FA67
:1003C00002F001FA04F340EA0300294630BD21FAA5
:1003D00004F0294630BD94F0000F83F4801306BF6B
:1003E00081F480110134013D4EE77FEA645C18BF5F
:1003F0007FEA655C29D094EA050F08BF90EA020FF6
:1004000005D054EA000C04BF1946104630BD91EAED
:10041000030F1EBF0021002030BD5FEA545C05D1F0
:100420004000494128BF41F0004130BD14F580042F
:100430003CBF01F5801130BD01F0004545F0FE41A3
:1004400041F470014FF0000030BD7FEA645C1ABFD8
:10045000194610467FEA655C1CBF0B46024650EA0F
:10046000013406BF52EA033591EA030F41F400213B
:1004700030BD00BF90F0000F04BF0021704730B5C1
:100480004FF4806404F132044FF000054FF0000196
:1004900050E700BF90F0000F04BF0021704730B557
:1004A0004FF4806404F1320410F0004548BF40422C
:1004B0004FF000013EE700BF42004FEAE2014FEA81
:1004C00031014FEA02701FBF12F07F4393F07F4F5C
:1004D00081F06051704732F07F4208BF704793F05F
:1004E0007F4F04BF41F40021704730B54FF4607472
:1004F00001F0004521F000411CE700BF50EA010275
:1005000008BF704730B54FF000050AE050EA01021D
:1005100008BF704730B511F0004502D5404261EB8D
:1005200041014FF4806404F132045FEA915C3FF4CE
:10053000D8AE4FF003025FEADC0C18BF03325FEA6B
:10054000DC0C18BF033202EBDC02C2F1200300FA1C
:1005500003FC20FA02F001FA03FE40EA0E0021FA41
:1005600002F11444BDE600BF70B54FF0FF0C4CF42F
:10057000E06C1CEA11541DBF1CEA135594EA0C0FE1
:1005800095EA0C0F00F0DEF82C4481EA030621EA1C
:100590004C5123EA4C5350EA013518BF52EA033557
:1005A00041F4801143F4801338D0A0FB02CE4FF009
:1005B0000005E1FB02E506F00042E0FB03E54FF039
:1005C0000006E1FB03569CF0000F18BF4EF0010E31
:1005D000A4F1FF04B6F5007F64F5407404D25FEA2D
:1005E0004E0E6D4146EB060642EAC62141EA5551E0
:1005F0004FEAC52040EA5E504FEACE2EB4F1FD0C22
:1006000088BFBCF5E06F1ED8BEF1004F08BF5FEA9F
:10061000500E50F1000041EB045170BD06F0004651
:1006200046EA010140EA020081EA0301B4EB5C04FE
:10063000C2BFD4EB0C0541EA045170BD41F48011F6
:100640004FF0000E013C00F3AB8014F1360FDEBF1B
:10065000002001F0004170BDC4F10004203C35DAF7
:100660000C341BDC04F11404C4F1200500FA05F37A
:1006700020FA04F001FA05F240EA020001F000421B
:1006800021F0004110EBD37021FA04F642EB060191
:100690005EEA430E08BF20EAD37070BDC4F10C04BB
:1006A000C4F1200500FA04F320FA05F001FA04F27F
:1006B00040EA020001F0004110EBD37041F100016B
:1006C0005EEA430E08BF20EAD37070BDC4F1200576
:1006D00000FA05F24EEA020E20FA04F301FA05F2DE
:1006E00043EA020321FA04F001F0004121FA04F286
:1006F00020EA020000EBD3705EEA430E08BF20EA56
:10070000D37070BD94F0000F0FD101F0004640008F
:1007100041EB010111F4801F08BF013CF7D041EA11
:10072000060195F0000F18BF704703F00046520015
:1007300043EB030313F4801F08BF013DF7D043EAE6
:100740000603704794EA0C0F0CEA135518BF95EA9C
:100750000C0F0CD050EA410618BF52EA4306D1D123
:1007600081EA030101F000414FF0000070BD50EA42
:10077000410606BF1046194652EA430619D094EACC
:100780000C0F02D150EA013613D195EA0C0F05D1B6
:1007900052EA03361CBF104619460AD181EA03010A
:1007A00001F0004141F0FE4141F470014FF00000C2
:1007B00070BD41F0FE4141F4780170BD70B54FF05D
:1007C000FF0C4CF4E06C1CEA11541DBF1CEA1355DD
:1007D00094EA0C0F95EA0C0F00F0A7F8A4EB0504BF
:1007E00081EA030E52EA03354FEA013100F08880B6
:1007F0004FEA03334FF0805545EA131343EA12637F
:100800004FEA022245EA111545EA10654FEA002633
:100810000EF000419D4208BF964244F1FD0404F5EC
:10082000407402D25B084FEA3202B61A65EB030548
:100830005B084FEA32024FF480104FF4002CB6EB05
:10084000020E75EB030E22BFB61A754640EA0C0085
:100850005B084FEA3202B6EB020E75EB030E22BFC5
:10086000B61A754640EA5C005B084FEA3202B6EB06
:10087000020E75EB030E22BFB61A754640EA9C00C5
:100880005B084FEA3202B6EB020E75EB030E22BF95
:10089000B61A754640EADC0055EA060E18D04FEA53
:1008A000051545EA16754FEA06164FEAC30343EAF3
:1008B00052734FEAC2025FEA1C1CC0D111F4801FC0
:1008C0000BD141EA00014FF000004FF0004CB6E7B9
:1008D00011F4801F04BF01430020B4F1FD0C88BF58
:1008E000BCF5E06F3FF6AFAEB5EB030C04BFB6EB63
:1008F000020C5FEA500C50F1000041EB045170BD56
:100900000EF0004E4EEA113114EB5C04C2BFD4EB82
:100910000C0541EA045170BD41F480114FF0000E06
:10092000013C90E645EA060E8DE60CEA135594EA82
:100930000C0F08BF95EA0C0F3FF43BAF94EA0C0F85
:100940000AD150EA01347FF434AF95EA0C0F7FF4FA
:1009500025AF104619462CE795EA0C0F06D152EA4E
:1009600003353FF4FDAE1046194622E750EA410632
:1009700018BF52EA43067FF4C5AE50EA41047FF443
:100980000DAF52EA43057FF4EBAE12E74FF0FF3CA8
:1009900006E000BF4FF0010C02E000BF4FF0010C79
:1009A0004DF804CD4FEA410C7FEA6C5C4FEA430CF2
:1009B00018BF7FEA6C5C1BD001B050EA410C0CBF41
:1009C00052EA430C91EA030F02BF90EA020F0020A3
:1009D000704710F1000F91EA030F58BF994208BF0A
:1009E00090422CBFD8176FEAE37040F001007047C7
:1009F0004FEA410C7FEA6C5C02D150EA013C07D11E
:100A00004FEA430C7FEA6C5CD6D152EA033CD3D068
:100A10005DF8040B704700BF8446104662468C4662
:100A20001946634600E000BF01B5FFF7B7FF002895
:100A300048BF10F1000F01BD4DF808EDFFF7F4FFBE
:100A40000CBF012000205DF808FB00BF4DF808ED49
:100A5000FFF7EAFF34BF012000205DF808FB00BF6C
:100A60004DF808EDFFF7E0FF94BF012000205DF88E
:100A700008FB00BF4DF808EDFFF7CEFF94BF012043
:100A800000205DF808FB00BF4DF808EDFFF7C4FF3C
:100A900034BF012000205DF808FB00BF4FEA41028F
:100AA000B2F1E04324BFB3F5001CDCF1FE5C0DD9CC
:100AB00001F0004C4FEAC0024CEA5070B2F1004F16
:100AC00040EB830008BF20F00100704711F0804F19
:100AD00021D113F13872BCBF01F00040704741F4DE
:100AE00080114FEA5252C2F11802C2F1200C10FAE2
:100AF0000CF320FA02F018BF40F001004FEAC123C6
:100B00004FEAD32303FA0CFC40EA0C0023FA02F369
:100B10004FEA4303CCE77FEA625307D150EA01333F
:100B20001EBF4FF0FE4040F44000704701F000400F
:100B300040F0FE4040F40000704700BF80F00040ED
:100B400002E000BF81F0004142001FBF5FEA4103A5
:100B500092EA030F7FEA226C7FEA236C6AD04FEAA5
:100B60001262D2EB1363C1BFD218414048404140EA
:100B7000B8BF5B42192B88BF704710F0004F40F49C
:100B8000000020F07F4018BF404211F0004F41F4B8
:100B9000000121F07F4118BF494292EA030F3FD084
:100BA000A2F1010241FA03FC10EB0C00C3F1200397
:100BB00001FA03F100F0004302D5494260EB400026
:100BC000B0F5000F13D3B0F1807F06D340084FEA91
:100BD000310102F10102FE2A51D2B1F1004F40EB86
:100BE000C25008BF20F0010040EA030070474900EE
:100BF00040EB0000013A28BFB0F5000FEDD2B0FA8B
:100C000080FCACF1080CB2EB0C0200FA0CF0AABFAD
:100C100000EBC25052421843BCBFD040184370474B
:100C200092F0000F81F4000106BF80F40000013251
:100C3000013BB5E74FEA41037FEA226C18BF7FEA28
:100C4000236C21D092EA030F04D092F0000F08BF6A
:100C50000846704790EA010F1CBF0020704712F051
:100C60007F4F04D1400028BF40F00040704712F190
:100C700000723CBF00F50000704700F0004343F0F5
:100C8000FE4040F4000070477FEA226216BF08462B
:100C90007FEA23630146420206BF5FEA412390EAEE
:100CA000010F40F4800070474FF0000304E000BFE4
:100CB00010F0004348BF40425FEA000C08BF704795
:100CC00043F0964301464FF000001CE050EA010259
:100CD00008BF70474FF000030AE000BF50EA01026E
:100CE00008BF704711F0004302D5404261EB41015B
:100CF0005FEA010C02BF84460146002043F0B64380
:100D000008BFA3F18053A3F50003BCFA8CF2083AA4
:100D1000A3EBC25310DB01FA02FC634400FA02FCAD
:100D2000C2F12002BCF1004F20FA02F243EB0200B4
:100D300008BF20F00100704702F1200201FA02FC16
:100D4000C2F1200250EA4C0021FA02F243EB020009
:100D500008BF20EADC7070477BB972B90029BEBFBA
:100D600000204FF0004106E008BF00281CBF6FF0D4
:100D700000414FF0FF3000F0D3B9ADF1080C6DE940
:100D800004CE002909DB002B1ADB00F04DF8DDF85A
:100D900004E0DDE9022304B07047404261EB410109
:100DA000002B1BDB00F040F8DDF804E0DDE9022356
:100DB00004B0404261EB4101524263EB4303704790
:100DC000524263EB430300F02FF8DDF804E0DDE965
:100DD000022304B0404261EB41017047524263EB91
:100DE000430300F021F8DDF804E0DDE9022304B05C
:100DF000524263EB4303704753B94AB9002908BF15
:100E000000281CBF4FF0FF314FF0FF3000F088B9D1
:100E1000ADF1080C6DE904CE00F006F8DDF804E051
:100E2000DDE9022304B070472DE9F047089D8E46A6
:100E300004468846002B4AD18A42174662D9B2FA44
:100E400082F64EB1C6F1200301FA06F820FA03F348
:100E5000B74043EA0808B4404FEA174E1FFA87FC30
:100E6000B8FBFEF1230C0EFB118843EA084301FB9B
:100E70000CF29A4209D9FB1801F1FF3080F0EA80A8
:100E80009A4240F2E78002393B449A1AA3B2B2FB7D
:100E9000FEF00EFB102243EA024300FB0CFC9C45D3
:100EA00009D9FB1800F1FF3280F0D6809C4540F252
:100EB000D3803B44023840EA0140A3EB0C030021FD
:100EC0001DB1F3400022C5E90032BDE8F0878B4236
:100ED00005D90DB1C5E9000100210846F5E7B3FACF
:100EE00083F1002946D1734502D3824200F2058185
:100EF000841A6EEB030201209046002DE5D0C5E96F
:100F00000048E2E7002A00F09080B2FA82F6002E54
:100F100040F0A4808A1A030C4FEA174E80B2BCB28C
:100F20000121B2FBFEFC0EFB1C2243EA024304FB40
:100F30000CF29A4207D9FB180CF1FF3802D29A4200
:100F400000F2E080C4469B1AB3FBFEF20EFB1233A4
:100F500040EA034302FB04F49C4207D9FB1802F168
:100F6000FF3002D29C4200F2CA8002461B1B42EABA
:100F70000C40A5E7C1F120068B4022FA06F71F437B
:100F80000EFA01F420FA06F32EFA06FE4FEA17498C
:100F9000234300FA01F81FFA87FCBEFBF9F01C0C92
:100FA00009FB10EE44EA0E4400FB0CFEA64502FAD3
:100FB00001F209D93C1900F1FF3A80F09C80A64566
:100FC00040F2998002383C44A4EB0E041FFA83FEE1
:100FD000B4FBF9F309FB13444EEA044403FB0CFC95
:100FE000A44508D93C1903F1FF3E80F08280A44556
:100FF0007FD9023B3C4443EA0040A4EB0C04A0FB35
:1010000002EC64457346E14662D35FD05DB1B8EB54
:10101000030264EB090404FA06F622FA01F31E4304
:10102000CC40C5E9006400214FE7B1FBF2FC010CA4
:1010300041EA0E4180B240EA01423B4638463C4616
:10104000B846BE462026B1FBF7F1A2EB080241EA02
:101050000C4166E7014618E710462CE7C6F120026E
:101060002EFA02F3B740B14020FA02F24FEA174ECF
:101070000A43B3FBFEF8BCB20EFB1833110C41EA75
:10108000034108FB04F9B04089454FEA104380B2A0
:101090003ED9791808F1FF3C01D289451FD8A1EB50
:1010A0000901B1FBFEF909FB04F80EFB191192B21C
:1010B00042EA0142424529D2BA1809F1FF31C4D2AD
:1010C0004245C2D2A9F102013A44BEE7F0459DD2A1
:1010D000BEEB02036CEB070C0138E14696E7A7EB89
:1010E00009094944A8F1020CB1FBFEF909FB04F817
:1010F000DBE773467FE7504666E70846FDE63B447C
:10110000023A33E7ACF1020C3B441CE749469CE74A
:10111000A1EB0901C446B1FBFEF909FB04F8C4E7E1
:10112000704700BF80B586B000AFF860B960134665
:10113000FB71FB68D3F80C329AB2FB799BB2134473
:10114000FB82FB8AB3F5007F2DD8FB6893F804324D
:10115000002B28D0FB68D3F80C3203F58073FA68B3
:1011600013440433FA79B968184610F033FAFA8A4E
:10117000FB68C3F80C22FB68002283F80422FB689A
:10118000D3F80C22FB68C3F80822FB681868FB68D8
:1011900003F58271FB68D3F808329BB21A460EF051
:1011A00069FE002301E04FF0FF3318461837BD46B3
:1011B00080BD000080B584B000AF7860124A07F1AE
:1011C000080392E8030018600433197007F108035C
:1011D00001330221184607F04BFC0346FB73FB7BEF
:1011E000FB7207F10803052219467868FFF79AFF9A
:1011F0000346002B02D04FF0FF3300E000231846D7
:101200001037BD4680BD00BF4C16010880B584B0C4
:1012100000AF7860124A07F1080392E803001860F3
:101220000433197007F1080301330221184607F04F
:101230001FFC0346FB73FB7BFB7207F108030522CF
:1012400019467868FFF76EFF0346002B02D04FF077
:10125000FF3300E0002318461037BD4680BD00BFB5
:101260005416010880B586B000AF78600B467B80CD
:1012700013463B80164A07F10C0307CA03C31A70D2
:1012800007F10C0303333A881A8007F10C03053386
:101290007A881A8007F10C0301330621184607F0FB
:1012A000E7FB0346FB75FB7DFB7407F10C0309228A
:1012B00019467868FFF736FF0346002B02D04FF03F
:1012C000FF3300E0002318461837BD4680BD00BF3D
:1012D0005C16010880B586B000AF786008461146FC
:1012E0001A460346FB700B46BB7013467B70194AC7
:1012F00007F10C0392E8030083E8030007F10C03F5
:101300000333FA781A7007F10C030433BA781A70B1
:1013100007F10C0305337A781A7007F10C030133D7
:101320000521184607F0A4FB0346FB75FB7DBB7443
:1013300007F10C03082219467868FFF7F3FE03460D
:10134000002B02D04FF0FF3300E00023184618377F
:10135000BD4680BD6816010880B483B000AF7860D8
:101360000B467B807B6801331B78032B0ED07B6898
:1013700001331B78042B09D07B6801331B78052BC4
:1013800004D07B6801331B78062B05D17B681B7862
:10139000DD2B01D1012300E0002318460C37BD46A8
:1013A0005DF8047B7047000090B58BB000AFF8602B
:1013B000B9603B601346FB800023BB84002387F8A1
:1013C0002330BB68FB61BB680333BB61FB699B785F
:1013D0000533BB84FB699B780333BA6813447B6194
:1013E000BB685A1CFB699B780233DBB21946104676
:1013F00007F03EFB034687F82330FA88BB8C9A42FD
:1014000001D20223F5E07B691B7897F823209A42EA
:1014100001D00023EDE03B68BA8C1A80FB695B7851
:10142000033B032B00F2E38001A252F823F000BF3C
:101430004114000887150008EF150008EF15000893
:10144000BB695B781A46BB691B781B0213431846BD
:10145000FFF720F86AA3D3E90023FFF785F80246D7
:101460000B4610461946FFF719FB0246FB68C3F806
:101470001C22BB69DB781A46BB699B781B021343AD
:101480001846FFF707F861A3D3E90023FFF76CF8CC
:1014900002460B4610461946FFF700FB0246FB6862
:1014A000C3F82022BB695B791A46BB691B791B0212
:1014B000134307EE903AF8EEE77AFB68C3ED897ABA
:1014C000BB69DB791A46BB699B791B02134307EEA4
:1014D000903AF8EEE77AFB68C3ED8A7ABB695B7AEB
:1014E0001AB2BB691B7A1BB21B021BB213431BB29D
:1014F0009AB2FB68A3F82C22BB69DB7A1AB2BB69EB
:101500009B7A1BB21B021BB213431BB29AB2FB683D
:10151000A3F82E22BB695B7B1AB2BB691B7B1BB293
:101520001B021BB213431BB29AB2FB68A3F8302212
:10153000BB699A7BFB6883F83222BB69DA7BFB6864
:1015400083F83322BB691A7CFB6883F83422BB69B9
:101550005A7CFB6883F83522BB69DB7C1A46BB6981
:101560009B7C1B021343A3F6AB23274A82FB031287
:101570009210DB17D31A07EE903AF8EEE77AFB6881
:10158000C3ED8E7A34E0002387F827302AE097F8FD
:1015900027305B000133BA69D35C194697F82730CE
:1015A0005B00BA69D35C1B020B431846FEF772FF5F
:1015B00013A3D3E90023FEF7D7FF02460B4697F8A3
:1015C000274010461946FFF769FA0146FA6804F108
:1015D0008E039B0013440433196097F827300133BE
:1015E00087F8273097F82730042BD0D900E000BFC8
:1015F000002318462C37BD4690BD00BFAFF30080D6
:10160000FCA9F1D24D62503F676666667B14AE4717
:10161000E17A843F80B586B000AF78600023FB603C
:1016200000237B6100233B6100237B817B68D3F82F
:1016300010227B68C3F814227B68D3F81432012B84
:101640004CD800236CE07A683B6913441A1D7B6810
:10165000D3F814329BB219461046FFF77DFEF860AE
:10166000FB68002B0AD17B68D3F814325A1E7B68C2
:10167000C3F814223B6901333B612FE07A683B6970
:101680001344191D7B68D3F814329AB207F10A0388
:101690007868FFF789FEF860FB68012B0DD17B8924
:1016A0001A463B6913443B617B68D3F814327A894C
:1016B0009A1A7B68C3F8142210E0FB68022B02D14F
:1016C0003B697B610FE03B6901333B617B68D3F889
:1016D00014325A1E7B68C3F8142200BF7B68D3F80B
:1016E0001432012BAFD87B68D3F81432002B12D000
:1016F0007B68181D7B681A1D7B69D1187B68D3F83D
:1017000014321A460FF066FF7B68D3F814227B6808
:10171000C3F8102203E07B680022C3F810220023E4
:1017200018461837BD4680BD80B584B000AF7860DC
:101730007B68012283F804227B68D3F80C227B6843
:10174000D3F80832D31AFB60FB68002B17DD7B68E7
:1017500003F582707B68D3F8083203F580737A68EA
:1017600013440433FA6819460FF034FFFA687B68B3
:10177000C3F80C227B680022C3F8082203E07B68D0
:101780000022C3F80C2200BF1037BD4680BD80B5D3
:1017900084B000AF78607B681B681B68DB6903F06E
:1017A0001003102B4ED17B681B681B6810221A6235
:1017B0007B681B685B6F1B685B689AB27B68D3F8B9
:1017C00018329BB213449BB2C3F58073FB81FB8933
:1017D000B3F5807F08D97B680022C3F810227B68AC
:1017E0000022C3F818222DE07B68D3F810329AB299
:1017F000FB891344BB81BB89B3F5807F22D87B680A
:10180000D3F810327A681344181D7B681B685A6D30
:101810007B68D3F818321344FA8919460FF0DAFEC0
:10182000BA897B68C3F810227B681B685B6F1B68F2
:101830005B68C3F580727B68C3F818227B6801225D
:1018400083F805221037BD4680BD80B584B000AF57
:1018500078607B68D3F818329BB2C3F18003FB81B8
:101860007B68D3F810329AB2FB891344BB81BB89E1
:10187000B3F5807F1CD87B68D3F810327A681344A4
:10188000181D7B681B685A6D7B68D3F818321344A7
:10189000FA8919460FF09EFEBA897B68C3F81022B8
:1018A0007B688022C3F818227B68012283F8052216
:1018B00000BF1037BD4680BD80B584B000AF7860F2
:1018C0007B68D3F818329BB2C3F58073FB817B68C9
:1018D000D3F810329AB2FB891344BB81BB89B3F5AC
:1018E000807F1CD87B68D3F810327A681344181DA7
:1018F0007B681B685A6D7B68D3F818321344FA89E9
:1019000019460FF067FEBA897B68C3F810227B681E
:101910000022C3F818227B68012283F8052200BF49
:101920001037BD4680BD80B582B000AF7860786862
:10193000FFF740FC7868FFF76DFE00BF0837BD4633
:1019400080BD80B483B000AF78607B68012283F8EB
:1019500004227B68002283F805227B680022C3F8FA
:1019600010227B680022C3F814227B680022C3F88F
:1019700008227B680022C3F80C227B680022C3F88F
:1019800018227B684FF00002C3F850227B684FF0AA
:101990000002C3F854227B68002283F858227B6837
:1019A000002283F859227B68002283F85A2200BF64
:1019B0000C37BD465DF8047B704780B483B000AF40
:1019C000786039603B680122C3F8A8203B68002298
:1019D000C3F8A0207B68012283F83D2A7B684FF082
:1019E00000025A607B680022C3F8382A3B684FF037
:1019F0000002C3F8B0207B6803F5236319464FF05B
:101A000000024FF00003C1E900237B6800221A6046
:101A10007B68002283F83C2A00BF0C37BD465DF886
:101A2000047B704780B485B000AFF860B9607A601D
:101A3000FB68002283F83D2A00BF1437BD465DF8DD
:101A4000047B7047000000002DE9B04F9AB000AF52
:101A500078617B6903F5805303F2F453D3ED007A88
:101A60009FEDC27A67EE877AC7ED107A7B699B6C2F
:101A700007EE903AF8EE677A9FEDBD7A67EE877AC7
:101A8000C7ED0F7A7B6903F5805303F214631B687B
:101A9000BB6300237B637B6993F8853A013B092B89
:101AA00000F21D8601A252F823F000BFD51A0008EB
:101AB0008D1B0008111E00088B1F00087D200008E8
:101AC000D52000083F220008C12300087723000822
:101AD0005D2600087B6903F58053D3F808257B69F0
:101AE00003F5A45308337969D1ED137A79692C3160
:101AF000B0EE671ADFED9F0A97ED0E0A1846904781
:101B0000D7ED0F7AB7EE007AF4EEC77AF1EE10FA5D
:101B100011DB7B6903F57663D3E900231046194690
:101B2000FFF7DCF802467B691A657B69022283F8BD
:101B3000852A00F0D9BDD7ED0F7AB6EE007AF4EE23
:101B4000C77AF1EE10FA01DA00F0CEBD7B69D3F866
:101B5000383F07EE903AF8EEE77A7B69C3ED157AE5
:101B60007B69D3ED157AFDEEE77A17EE902A7B6953
:101B700003F58053C3F894267B6903F579631A68EB
:101B80007B6903F527631A6000F0AEBD7B6903F63D
:101B900084731B687B6607E0D7ED197A9FED737A33
:101BA00077EEC77AC7ED197AD7ED197A9FED6F7A7C
:101BB000F4EEC77AF1EE10FAEEDC7B6993ED137A5E
:101BC000D7ED107ADFED6A6A67EEA67A77EE277AAC
:101BD0007B69C3ED137A7B6903F58053D3F808253D
:101BE0007B6903F5A45308337969D1ED137A7969D8
:101BF0002C31B0EE671ADFED5F0A97ED0E0A18463A
:101C000090477B69D3ED137A9FED587AF4EEC77A4B
:101C1000F1EE10FA79DB7B69032283F8852A7B6970
:101C200003F57663D3E9002310461946FFF756F80B
:101C300007EE100A7B69D3ED147A77EE677AFDEE32
:101C4000E77A17EE903A7B637B6B002B07DD7B69AD
:101C500003F580531A460123C2F8903607E07B69EA
:101C600003F580531A464FF0FF33C2F890367B6974
:101C700003F68473D3ED007A9FED3C7A77EEC77A52
:101C8000F5EEC07AF1EE10FA13DD7B6903F684738A
:101C9000D3ED007A9FED357A77EEC77AB6EE007A0B
:101CA000F4EEC77AF1EE10FACCBF01230023DBB2C9
:101CB00012E07B6903F68473D3ED007A9FED2B7AF3
:101CC00077EEC77ABEEE007AF4EEC77AF1EE10FA3C
:101CD0004CBF01230023DBB2002B16D07B6900220E
:101CE0009A647B6993F8843A012B04D87B690A22B1
:101CF00083F8852A09E07B6903F580531A46D2F8F8
:101D0000603543F40073C2F860357B6903F5805396
:101D100003F2146393ED007A7B6903F5805303F2B9
:101D20009443D3ED007A77EE677AF5EEC07AF1EE60
:101D300010FA25DD7B6903F5805303F2146393EDFC
:101D4000007A7B6903F5805303F29443D3ED007A64
:101D500077EE677A9FED087AF4EEC77AF1EE10FA23
:101D60004CBF01230023DBB224E000BFDB0FC940DE
:101D700017B75138000000000AD7233C0AD723BC0C
:101D80007B6903F5805303F2146393ED007A7B695A
:101D900003F5805303F29443D3ED007A77EE677A2C
:101DA0001FED0A7AF4EEC77AF1EE10FACCBF0123E8
:101DB0000023DBB2002B00F09484786EFEF77CFBEE
:101DC000B9A3D3E90023FEF75FFE0346002B01D140
:101DD00000F087BC7B6903F5286353E90245786E00
:101DE000FEF76AFB02460B4620462946FEF706FA36
:101DF00002460B46796901F5286141E902237B69B6
:101E0000D3F8803A5A1C7B69C3F8802A00F069BC79
:101E10007B6903F684731B683B6607E0D7ED187A8D
:101E20009FEDA97A77EEC77AC7ED187AD7ED187AC1
:101E30009FEDA57AF4EEC77AF1EE10FAEEDC7B693D
:101E400093ED137AD7ED107ADFEDA06A67EEA67AEC
:101E500077EE677A7B69C3ED137A7B6903F580536C
:101E6000D3F808257B6903F5A45308337969D1EDCC
:101E7000137A79692C31B0EE671ADFED950A97ED88
:101E80000E0A184690477B69D3ED137AF5EEC07AB7
:101E9000F1EE10FA03D87B69042283F8852A7B6966
:101EA00003F5805303F2146393ED007A7B6903F525
:101EB000805303F29443D3ED007A77EE677AF5EE20
:101EC000C07AF1EE10FA1ADD7B6903F5805303F254
:101ED000146393ED007A7B6903F5805303F2944316
:101EE000D3ED007A77EE677A9FED737AF4EEC77AD6
:101EF000F1EE10FA4CBF01230023DBB219E07B693D
:101F000003F5805303F2146393ED007A7B6903F5C4
:101F1000805303F29443D3ED007A77EE677A9FED16
:101F2000677AF4EEC77AF1EE10FACCBF01230023F2
:101F3000DBB2002B00F0D783386EFEF7BDFA5AA350
:101F4000D3E90023FEF7A0FD0346002B00D1CAE32E
:101F50007B6903F5286353E90245386EFEF7ACFA56
:101F600002460B4620462946FEF748F902460B4634
:101F7000796901F5286141E902237B69D3F8803A48
:101F80005A1C7B69C3F8802AADE37B6903F528639B
:101F900053E902457B69D3F8803A1846FEF77AFA8E
:101FA00002460B4620462946FEF708FC02460B4631
:101FB0003FA1D1E90001FEF71FF902460B4610468A
:101FC0001946FEF76BFD02467B6903F5805303F566
:101FD000D3631A607B6903F58053D3F8943607EE18
:101FE000903AB8EEE77A7B6903F5805303F5D36343
:101FF000D3ED007ADFED336A27EEA66A7B6903F53D
:10200000805303F2F453D3ED007ADFED2F6A67EECD
:10201000A66AC6EE267A77EE277AFDEEE77A17EE05
:10202000902A7B6903F58053C3F894267B6903F5F6
:1020300080531A460123C2F888367B6903F5805322
:10204000012283F85B257B6900229A647B6903F592
:102050008053D3F87C457B6903F5AA530C337A6926
:1020600002F5A85110317A6902F5AF5208321846CC
:10207000A0477B69012283F8852A35E37B694FF00D
:102080000002DA647B6900229A647B690022A3F86B
:1020900058207B694FF000029A667B69062283F81C
:1020A000852A21E3AFF30080182D4454FB21094019
:1020B00000000060FB2119400AD7233C0AD723BC4B
:1020C000000000430000004BDB0FC94017B7513838
:1020D000000000007B69B3F9583007EE903AB8EE83
:1020E000E77A7B6903F5805303F2F453D3ED007A6A
:1020F0005FED0D6A67EEA67AB4EEE77AF1EE10FABC
:1021000079D57B69D3ED1A7A97ED0F7AB4EEE77A39
:10211000F1EE10FA4ADD7B6993ED1A7AD7ED107A69
:102120005FED196A67EEA66A1FED196AC6EE267A98
:1021300077EE277A7B69C3ED1A7A7B69D3ED137A40
:102140001FED207A67EE876A7B6903F5805303F2FF
:10215000F453D3ED007A1FED247A27EE877AC6EE8A
:10216000877AFDEEE77A17EE903A3B627B69D3F807
:10217000382F3B6AD31AFB61FB691B1203F400037F
:10218000FA691344FB617B69B3F958301A467B69DD
:102190001C32F96943F822107B69B3F958309BB2BD
:1021A00001339BB21AB27B69A3F858207B6993ED87
:1021B000137AD7ED107A5FED3B6A67EEA67A77EE79
:1021C000277A7B69C3ED137A7B6903F58053D3F8D3
:1021D00008257B6903F5A45308337969D1ED137A97
:1021E00079692C31B0EE671A5FED470A97ED0E0A58
:1021F0001846904778E27B6993ED137AD7ED107A11
:102200005FED4E6A67EEA67A77EE677A7B69C3ED7B
:10221000137A7B6900229A647B69B3F958309BB2C8
:10222000013B9BB21AB27B69A3F858207B694FF03F
:1022300000029A667B69072283F8852A54E27B694B
:10224000B3F95830002BC0F288807B69D3ED1A7A3D
:1022500097ED0F7AB4EEE77AF1EE10FA58DD7B696C
:1022600093ED1A7AD7ED107A5FED6B6A67EEA66A86
:102270001FED6B6AC6EE267A77EE277A7B69C3ED8F
:102280001A7A7B69D3ED137A1FED727A67EE876A4B
:102290007B6903F5805303F2F453D3ED007A1FED0D
:1022A000767A27EE877AC6EE877AFDEEE77A17EE22
:1022B000903ABB627B69D3F8382FBB6AD31A7B6232
:1022C0007B6A1B1203F400037A6A13447B627B6906
:1022D000B3F958301A467B691C3253F822207B6AC6
:1022E00013447A69B2F958201046DA0F13445B1090
:1022F00019467B6900F11C0243F822107B69B3F98F
:1023000058309BB2013B9BB21AB27B69A3F85820AC
:102310007B6993ED137AD7ED107A5FED946A67EEDF
:10232000A67A77EE677A7B69C3ED137A7B6903F54A
:102330008053D3F808257B6903F5A45308337969E2
:10234000D1ED137A79692C31B0EE671A5FEDA00AEE
:1023500097ED0E0A18469047C6E17B695B6C7A6977
:102360002C32104698477B6900229A647B690822C8
:1023700083F8852AB8E17B6903F58053D3F80825F3
:102380007B6903F5A45308337969D1ED137A796930
:102390002C31B0EE671A5FEDB20A1FEDB30A184692
:1023A0009047D7ED0F7AB0EE007AF4EEC77AF1EEEF
:1023B00010FA00DA98E17B69082283F8852A93E114
:1023C0004FF000024FF00003C7E9162300237B659E
:1023D00016E07B697A6D1C3253F82230DA17984682
:1023E0009146D7E9162312EB0801396043EB090344
:1023F0007B60D7E90023C7E916237B6D01337B653A
:102400007B6D07EE903AB8EEE77A7B6903F580536F
:1024100003F2F453D3ED007ADFEDB86A67EEA67AE3
:10242000B4EEE77AF1EE10FAD3D4D7E91601FEF74D
:1024300055FC06EE900A7B6903F5805303F2F453D2
:10244000D3ED007A9FEDAD7A27EE877AC6EE877AD4
:10245000FDEEE77A17EE902A7B6903F58053C3F807
:10246000942680233B637B691B6FDB01DB0DFB62E2
:1024700000233B65BEE04FF000024FF00003C7E9C8
:1024800016233B6BDA0F13445B105B42FB647FE067
:102490003B6D07EE903AB8EEE77A7B6903F580531F
:1024A00003F2F453D3ED007A67EE277A9FED937A27
:1024B00067EE877ADFED916A87EEA67AFB6C07EE0E
:1024C000903AF8EEE77A77EE277AFDEEE77A17EEA4
:1024D000903ABB64BB6C002B17DABB6C07EE903AEA
:1024E000B8EEE77A7B6903F5805303F2F453D3ED3A
:1024F000007ADFED826A67EEA67A77EE277AFDEE44
:10250000E77A17EE903ABB642FE0BB6C07EE903A87
:10251000B8EEE77A7B6903F5805303F2F453D3ED09
:10252000007ADFED766A67EEA67AF7EE006A77EE5C
:10253000E67AB4EEE77AF1EE10FA16DDBB6C07EE40
:10254000903AB8EEE77A7B6903F5805303F2F453CF
:10255000D3ED007ADFED696A67EEA67A77EE677AE7
:10256000FDEEE77A17EE903ABB647B69BA6C1C32D9
:1025700053F82230DA171C461546D7E9162312EB1A
:10258000040A43EB050BC7E916ABFB6C0133FB6494
:102590003B6BDA0F13445B101A46FB6C9342FFF659
:1025A00077AF3B6BDA17BB60FA60D7E90223D7E954
:1025B0001601FEF7D1FB02460B46C7E91623FA6A5D
:1025C0003B6D13447B647B6C7F2B02D97B6C803B1F
:1025D0007B64BB6D7A6902F58052D2F894269B1A0F
:1025E00019467B697A6C02F5B56243F822103B6D9F
:1025F00001333B653B6D7F2B7FF63DAF7B6900224E
:102600009A647B690022A3F858207B694FF000028E
:102610009A667B69002283F8852A7B6903F58053DB
:102620001A460123C2F888367B6903F580530122DC
:1026300083F85B257B6903F58053D3F87C457B6980
:1026400003F5AA530C337A6902F5A85110317A695F
:1026500002F5AF5208321846A04745E07B6993ED7A
:10266000137AD7ED107ADFED266A67EEA67A77EE59
:10267000677A7B69C3ED137A7B6903F58053D3F8DE
:1026800008257B6903F5A45308337969D1ED137AE2
:1026900079692C31B0EE671ADFED1A0A97ED0E0A50
:1026A00018469047D7ED0F7AB0EE007AF4EEC77A6D
:1026B000F1EE10FA00DA12E07B6900229A647B697D
:1026C00093F8843A0133DAB27B6983F8842A7B6910
:1026D0004FF00002DA647B69012283F8852A00BF8B
:1026E00002E000BF00E000BF7B699B6C5A1C7B6965
:1026F0009A6400BF6837BD46BDE8B08F0000004354
:1027000017B751380000000080B487B000AFF86000
:10271000B9607A603B6000237B617B6893F820306E
:10272000DBB2012B10D1BB6803F58A6319464FF069
:1027300000024FF0000341E90223BB6803F2644347
:102740004FF000021A603CE07B6893F82030DBB267
:10275000022B33D1BB6803F58D63D3ED007AF5EE20
:10276000C07AF1EE10FA0CDDBB6803F58D63D3ED92
:10277000007AB6EE007AF4EEC77AF1EE10FA0CD4D5
:102780001CE0BB6803F58D63D3ED007ABEEE007AE2
:10279000F4EEC77AF1EE10FA10DD72B600BFFB68F6
:1027A0004FF000021A60FB684FF000021A61FB68EC
:1027B0004FF000021A6262B600BF02E04FF0FF3332
:1027C0007B617B6918461C37BD465DF8047B70470A
:1027D00080B485B000AFF860B9607A607B6893F828
:1027E0002030DBB2022B05D07B6893F82030DBB2BF
:1027F000042B58D1BB681B6B032B46D801A252F89F
:1028000023F000BF152800081F2800082928000809
:1028100033280008FB689A69FB689A6038E0FB6817
:102820005A69FB685A6033E0FB681A69FB681A60F2
:102830002EE0FB6893ED007AFB68D3ED047AB4EEEA
:10284000677AF1EE10FA22D0FB68012283F82C207F
:10285000FB681A69FB681A60FB68D3ED057AF5EE30
:10286000C07AF1EE10FA03DDFB68D3ED057A04E0DF
:10287000FB68D3ED057AF1EE677AFB68C3ED017A68
:10288000FB68DA69FB68DA6001E000BF00E000BFC6
:102890007A68136923F0080313617A68936923F057
:1028A0000803936100E000BF1437BD465DF8047B68
:1028B000704700BF80B485B000AF786087ED000A34
:1028C000D7ED007A9FED0E7AF4EEC77AF1EE10FAAA
:1028D00001D53B6800E00B4BFB607B68FA685A63EC
:1028E000D7ED037AB2EE047A67EE877A7B68C3EDA0
:1028F0000C7A00BF1437BD465DF8047B704700BFFB
:1029000000409C4500409C4580B582B000AF786097
:1029100039603B68D3ED167AB0EE670A7868FFF746
:10292000C9FF00BF0837BD4680BD80B487B000AF87
:10293000F860B9607A603B604FF000037B61BB6870
:1029400003F264431B687B61FB687A691A60FB6869
:102950004FF000025A60FB684FF000029A60FB687B
:102960007A691A61FB684FF000025A61FB684FF008
:1029700000029A61FB687A691A62FB684FF00002F4
:102980005A62FB684FF000029A62FB684FF0000247
:102990001A64FB684FF000029A633B6893ED077A74
:1029A0003B68D3ED027A67EE277AFB68C3ED137AB2
:1029B000FB68002283F82C207B68012283F84820E2
:1029C0007B687A691A617B684FF000025A6100BF28
:1029D0001C37BD465DF8047B704700000000000016
:1029E000B0B590B002AF78607B6803F67C73D3ED2E
:1029F000006A7B6803F5805303F29C6393ED007AD1
:102A0000C6EE877A7B6803F6EC23C3ED007A7B6819
:102A100003F580531A46D2F85C3523F00803C2F858
:102A20005C357B6803F5805393F86C35DBB2022B81
:102A300008D07B6803F5805393F86C35DBB2042B28
:102A400040F0E6837B6803F58053D3F81836032BF8
:102A500000F2DB8301A252F823F000BF6D2A0008C8
:102A60005D2B00089B2E0008513000087B6803F5A1
:102A7000805303F5C763D3ED007A9FEDCF7A67EEFD
:102A8000877AF5EEC07AF1EE10FA0BDD7B6803F57C
:102A9000805303F5C763D3ED007A9FEDC77A67EEE5
:102AA000877A0CE07B6803F5805303F5C763D3EDA9
:102AB000007A9FEDC17A67EE877AF1EE677AC7ED0B
:102AC000067A7B6803F52B6393ED007A7B6803F548
:102AD0002D63D3ED007A77EE677AC7ED057AD7EDEF
:102AE000067AF1EE677A97ED057AB4EEE77AF1EEC1
:102AF00010FA02DDD7ED057A03E0D7ED067AF1EEA4
:102B0000677A97ED067AF4EEC77AF1EE10FA02DDF5
:102B1000D7ED067A11E0D7ED067AF1EE677A97EDF8
:102B2000057AB4EEE77AF1EE10FA02DDD7ED057A18
:102B300003E0D7ED067AF1EE677AC7ED047A7B6899
:102B400003F52D6393ED007AD7ED047A77EE277ABB
:102B50007B6803F52D63C3ED007A59E37B6803F5C9
:102B6000805303F23C63D3ED007A9FED937A67EED6
:102B7000877AF5EEC07AF1EE10FA0BDD7B6803F58B
:102B8000805303F23C63D3ED007A9FED8B7A67EEBE
:102B9000877A0CE07B6803F5805303F23C63D3ED46
:102BA000007A9FED857A67EE877AF1EE677AC7ED56
:102BB000097A7B6803F5805393F86C35DBB2022BFE
:102BC00040F0B9807B6803F58053D3F8E835012BDA
:102BD00055D17B6803F67C7393ED007A7B6803F52F
:102BE000805303F20C63D3ED007A77EE277A17EE69
:102BF000900AFDF761FC6CA3D3E90023FDF730FFD9
:102C00000346002B10D07B6803F6AC23D3ED007A8B
:102C1000F5EEC07AF1EE10FA06D57B6803F6AC2328
:102C20004FF000021A6086E07B6803F67C7393ED38
:102C3000007A7B6803F5805303F20C63D3ED007ACE
:102C400077EE277A17EE900AFDF736FC58A3D3E902
:102C50000023FDF70FFF0346002B6CD07B6803F6C3
:102C6000AC23D3ED007AF5EEC07AF1EE10FA62DD16
:102C70007B6803F6AC234FF000021A605BE07B68D0
:102C800003F58053D3F8E835002B54D17B6803F665
:102C90007C7393ED007A7B6803F5805303F20C6339
:102CA000D3ED007A77EE677A17EE900AFDF704FC11
:102CB0003DA3D3E90023FDF7D3FE0346002B10D03C
:102CC0007B6803F6AC23D3ED007AF5EEC07AF1EE23
:102CD00010FA06DD7B6803F6AC234FF000021A60A1
:102CE00029E07B6803F67C7393ED007A7B6803F53B
:102CF000805303F20C63D3ED007A77EE677A17EE18
:102D0000900AFDF7D9FB2AA3D3E90023FDF7B2FE11
:102D10000346002B0FD07B6803F6AC23D3ED007A7B
:102D2000F5EEC07AF1EE10FA05D57B6803F6AC2318
:102D30004FF000021A607B6803F6AC2393ED007A33
:102D40007B6803F6CC23D3ED007A77EE677AC7ED84
:102D5000087AD7ED097AF1EE677A97ED087AB4EE42
:102D6000E77AF1EE10FA02DDD7ED087A03E0D7ED4D
:102D7000097AF1EE677A97ED097AF4EEC77AF1EE07
:102D800010FA02DDD7ED097A1CE0D7ED097AF1EEF1
:102D9000677A97ED087AB4EEE77AF1EE10FA0DDD76
:102DA000D7ED087A0EE000BF9A9999999999B93FA1
:102DB000CDCCCCCCCCCC28406F12833AD7ED097A5D
:102DC000F1EE677AC7ED077A7B6803F6CC2393EDC3
:102DD000007AD7ED077A77EE277A7B6803F6CC2363
:102DE000C3ED007A7B6803F52D634FF000021A6093
:102DF0007B6803F58053D3F85C35C3F3C003DBB2C3
:102E0000002B41D17B6803F6AC2393ED007A7B68FD
:102E100003F57863D3ED007A77EE677AF5EEC07A42
:102E2000F1EE10FA0CDD7B6803F6AC2393ED007A2B
:102E30007B6803F57863D3ED007A77EE677A0DE06F
:102E40007B6803F6AC2393ED007A7B6803F5786327
:102E5000D3ED007A77EE677AF1EE677A7B6803F557
:102E6000805303F5C66393ED007AF4EEC77AF1EE72
:102E700010FA09D57B6803F580531A46D2F85C3501
:102E800043F00803C2F85C357B6803F6CC231A686C
:102E90007B6803F6E8231A60BAE17B6803F6AC238B
:102EA0004FF000021A607B6803F6A82393ED007AC6
:102EB0007B6803F6C823D3ED007A77EE677AC7ED17
:102EC0000D7A7B6803F6AC2393ED007A7B6803F6FA
:102ED000CC23D3ED007A77EE677AC7ED0C7A7B6866
:102EE00003F6D82393ED007AD7ED0D7A27EE277AF3
:102EF0007B6803F6DC23D3ED006AD7ED0C7A66EE2F
:102F0000A77A77EE277AC7ED0B7A7B6803F6CC2396
:102F100093ED007AD7ED0B7A5FED596A67EEA67AEA
:102F200077EE277A7B6803F6CC23C3ED007A7B68C3
:102F300003F6C82393ED007A7B6803F6CC23D3ED28
:102F4000007A5FED636A67EEA67A77EE277A7B6890
:102F500003F6C823C3ED007A7B6803F58053D3F8EA
:102F60005C35C3F3C003DBB2002B41D17B6803F6B1
:102F7000A82393ED007A7B6803F6EC23D3ED007A67
:102F800077EE677AF5EEC07AF1EE10FA0CDD7B6829
:102F900003F6A82393ED007A7B6803F6EC23D3EDC8
:102FA000007A77EE677A0DE07B6803F6A82393ED4D
:102FB000007A7B6803F6EC23D3ED007A77EE677A2C
:102FC000F1EE677A7B6803F5805303F2346393ED87
:102FD000007AF4EEC77AF1EE10FA09D57B6803F5B2
:102FE00080531A46D2F85C3543F00803C2F85C35CA
:102FF0007B6803F6C82393ED007A7B6803F6EC2325
:10300000D3ED007A77EE677AC7ED0A7A7B6803F52D
:103010008053D3F85C35C3F3C003DBB2012B06D178
:103020007B6803F6E8234FF000021A60F0E07B684B
:1030300003F5805303F21C6393ED007AD7ED0A7A0F
:1030400067EE277A7B6803F6E823C3ED007ADFE0BA
:103050007B6893F8D43A002B69D07B6803F58053E2
:10306000D3F8E0257B6803F5AC531433796801F697
:10307000A821D1ED007A796801F67C7191ED007A92
:10308000796801F6AC21D1ED006A796801F57861C3
:1030900091ED006A796801F6B421D1ED005A7968A2
:1030A00001F5805101F5C96191ED005A796801F58A
:1030B000805101F24C61D1ED004A796801F58051EF
:1030C00001F2446191ED004AF0EE443AB0EE643A08
:1030D000F0EE452AB0EE652AF0EE461AB0EE661A1A
:1030E000F0EE470AB0EE670A184690470346002BF9
:1030F0000ED17B68002283F8D42A7B6803F58053C5
:103100001A46D2F85C3543F02003C2F85C3522E061
:103110007B68002283F8D42A7B6803F580531A4623
:10312000D2F85C3523F02003C2F85C3513E07B68ED
:1031300003F58053D3F8E4457B6803F5AC501430B5
:103140007B6803F618317B6803F6A8227B6803F5D9
:10315000AF530833A0477B6803F58053D3F85C3541
:10316000C3F3C003DBB2002B51D17B6803F580535E
:1031700003F2A45393ED007A7B6803F6EC23D3EDBE
:10318000007A77EE677AF5EEC07AF1EE10FA0EDD8E
:103190007B6803F5805303F2A45393ED007A7B68B8
:1031A00003F6EC23D3ED007A77EE677A0FE07B68C5
:1031B00003F5805303F2A45393ED007A7B6803F682
:1031C000EC23D3ED007A77EE677AF1EE677A7B68CD
:1031D00003F5805303F2346393ED007AF4EEC77A7B
:1031E000F1EE10FA00D412E07B6803F580531A4622
:1031F000D2F85C3543F00803C2F85C357B6803F60F
:10320000E8234FF000021A6001E000BF00E000BFB9
:103210007B6803F5805303F5C16393ED007A7B6807
:1032200003F6E823D3ED006A7B6803F5805303F5CA
:10323000C163D3ED007AF1EE677AF4EEE76AF1EE5E
:1032400010FA05DD7B6803F6E823D3ED007A08E089
:103250007B6803F5805303F5C163D3ED007AF1EE8B
:10326000677AF4EEC77AF1EE10FA07DD7B6803F5B2
:10327000805303F5C163D3ED007A21E07B6803F648
:10328000E82393ED007A7B6803F5805303F5C1636F
:10329000D3ED007AF1EE677AB4EEE77AF1EE10FA48
:1032A00005DD7B6803F6E823D3ED007A08E07B6850
:1032B00003F5805303F5C163D3ED007AF1EE677A2D
:1032C0007B6803F6E823C3ED007A7B6803F52D6382
:1032D0001A687B6803F52F631A607B6803F58053D7
:1032E000D3F81836002B3BDD7B6803F6E82393ED1B
:1032F000007A7B6803F57863D3ED007A77EE677A1E
:103300007B6803F6E423C3ED007A7B6803F52F6343
:1033100093ED007A7B6803F5805303F5C463D3ED26
:10332000006A7B6803F6E423D3ED007A66EEA77AA1
:1033300077EE277A7B6803F52F63C3ED007A7B680D
:1033400003F52F6393ED007A7B6803F52E63D3EDCD
:10335000007A77EE277A7B6803F52F63C3ED007A56
:103360007B6803F58053D3F81836002B00F39B805D
:103370007B6803F6E823D3ED007ABBEE0E7AF4EE19
:10338000C77AF1EE10FACCBF01230023DBB283F041
:103390000103DBB2002B13D17B6803F6E823D3EDE6
:1033A000007AB3EE0E7AF4EEC77AF1EE10FACCBFE3
:1033B00001230023DBB283F00103DBB2002B12D028
:1033C0007B6803F6E823D3ED007ABBEE0E7AF4EEC9
:1033D000C77AF1EE10FA04DD7B6803F6E8231B6878
:1033E00002E0A04B00E0A04B7A6802F6E8221360EE
:1033F0007B6803F57863D3ED007AB3EE0E7A37EE8F
:10340000677A7B6803F5805303F5C463D3ED007AD4
:1034100067EE277AC7ED037A7B6803F57863D3ED0F
:10342000007ABBEE0E7A37EE677A7B6803F580533D
:1034300003F5C463D3ED007A67EE277AC7ED027A0D
:103440007B6803F52F63D3ED007A97ED027AB4EE33
:10345000E77AF1EE10FA05D57B6803F52F63D3ED1B
:10346000007A01E0D7ED027A97ED037AF4EEC77A9D
:10347000F1EE10FA01DDFB6811E07B6803F52F63C4
:10348000D3ED007A97ED027AB4EEE77AF1EE10FA16
:1034900004D57B6803F52F631B6800E0BB687A687E
:1034A00002F52F6213607B6803F52F63D3ED007A7A
:1034B000F5EEC07AF1EE10FA05DD7B6803F52F63B7
:1034C000D3ED007A06E07B6803F52F63D3ED007A35
:1034D000F1EE677A7B6803F6F42393ED007AF4EE5D
:1034E000C77AF1EE10FA5BDD7B6803F6F42393ED07
:1034F000007A7B6803F52F63D3ED006A7B6803F6DF
:10350000F423D3ED007AF1EE677AF4EEE76AF1EE98
:1035100010FA05DD7B6803F52F63D3ED007A06E032
:103520007B6803F6F423D3ED007AF1EE677AF4EECC
:10353000C77AF1EE10FA05DD7B6803F6F423D3EDCC
:10354000007A1DE07B6803F52F6393ED007A7B68BA
:1035500003F6F423D3ED007AF1EE677AB4EEE77A5E
:10356000F1EE10FA05DD7B6803F52F63D3ED007AE9
:1035700006E07B6803F6F423D3ED007AF1EE677A78
:103580007B6803F52F63C3ED007A7B6803F58053F6
:103590001A46D2F85C3543F01003C2F85C3539E0C6
:1035A0007B6803F52F63D3ED007AF5EEC07AF1EE78
:1035B00010FA05DD7B6803F52F63D3ED007A06E092
:1035C0007B6803F52F63D3ED007AF1EE677A7B68B1
:1035D00003F5805303F2046393ED007ADFED236A71
:1035E00067EE266A7B6803F5805303F5BE6393EDAF
:1035F000007A26EE877AF4EEC77AF1EE10FA09D552
:103600007B6803F580531A46D2F85C3523F010032B
:10361000C2F85C357B6803F58053D3F81836002B6D
:1036200006DC7B6803F52E634FF000021A6043E06E
:103630007B6803F58053D3F85C35C3F30013DBB22A
:10364000002B1BD07B6803F52E63D3ED007A9FED32
:10365000087A67EE877A7B6803F52E63C3ED007AFC
:103660002AE000BF0000F0C10000F0416666663F3E
:10367000A4707D3F6F12833A000000007B6803F561
:103680002E6393ED007A7B6803F5805303F2246385
:10369000D3ED007A5FED096A67EEA66A7B6803F6F0
:1036A000E423D3ED007A66EEA77A77EE277A7B687B
:1036B00003F52E63C3ED007A7B6803F52F63D3ED2A
:1036C000006A7B6803F5805303F5BE6393ED007ACF
:1036D000C6EE877A7B6803F6F823C3ED007A7B6831
:1036E00003F58053D3F80C457B6803F5A4500830EC
:1036F0007B6803F6F823D3ED007A7B6803F68473C6
:1037000093ED007A7B6803F68C73D3ED006A7B68D7
:1037100003F12C057B6803F5AA520C327B6803F594
:10372000AF530833796801F6183100912946F0EE5D
:10373000661AB0EE471AF0EE670A1FED310AA0478D
:1037400000BF3837BD46B0BD80B586B000AFF86069
:10375000B9601346FB71FB68D3F80C349AB2FB795D
:103760009BB21344FB82FB8AB3F5007F28D8FB6829
:10377000D3F80C3403F50073FA6813440433FA7970
:10378000B96818460DF026FFFA8AFB68C3F80C24C6
:10379000FB68002283F80424FB68D3F80C24FB6840
:1037A000C3F80824FB681868FB6803F50171FB681F
:1037B000D3F808349BB21A460CF05CFB002301E0FE
:1037C0004FF0FF3318461837BD4680BD80B584B032
:1037D00000AF78600B46FB700023FB607B6893F8BA
:1037E0000434002B06D0FB1C012219467868FFF731
:1037F000ABFFF860FB6818461037BD4680BD00007F
:103800002DE9B0438CB000AFF860B9607A60FB6816
:10381000D3F82024FB68D3F82434D31AFB6203E0E6
:10382000FB6AA3F50003FB62FB6AB3F5800FF7DCCC
:1038300003E0FB6A03F50003FB62FB6A13F5800FEC
:10384000F7DBFB6A83EAE372A2EBE372BB68D3F8AF
:10385000B8329A4234DDFB68D3F85034002B08D1DB
:10386000FB68D3F82424FB68C3F820240023FB6200
:1038700010E0FB68D3F85424FB68D3F858341A449A
:10388000FB68D3F85C341A44FB68D3F86034134403
:103890009B10FB62FB68D3F850345A1CFB68C3F8DA
:1038A0005024FB68D3F85034042B23D9FB6805223D
:1038B000C3F850247A68536943F00803536119E050
:1038C000FB68D3F85C24FB68C3F86024FB68D3F87A
:1038D0005824FB68C3F85C24FB68D3F85424FB68C5
:1038E000C3F85824FB68FA6AC3F85424FB68002222
:1038F000C3F85024FB6803F58A6353E90223F96A8D
:10390000C8170C46054612EB040843EB0509FB6893
:1039100003F58A6343E90289FB6803F23C4393EDB4
:10392000007AFB6803F22C43D3ED006AFB6803F5D1
:103930008863D3ED007A66EEA77A77EE277AFB6884
:1039400003F23C43C3ED007AFB68D3F82034FA68F5
:1039500002F23C42D2ED007AFDEEE77A17EE902AB1
:103960009B1A07EE903AF8EEE77AC7ED0A7A07E07D
:10397000D7ED0A7A9FED9F7A77EEC77AC7ED0A7A7C
:10398000D7ED0A7A9FED987AF4EEC77AF1EE10FA45
:10399000EEDC07E0D7ED0A7A9FED967A77EE877A2C
:1039A000C7ED0A7AD7ED0A7A9FED907AF4EEC77ADE
:1039B000F1EE10FAEED4FB6803F23C4393ED007A8B
:1039C000FB6803F22C43D3ED006AFB6803F27C43EF
:1039D000D3ED007A66EEA76AD7ED0A7A66EEA77A8B
:1039E00077EE277AFB6803F23C43C3ED007A0DE0E3
:1039F000FB6803F23C43D3ED007A9FED7E7A77EECD
:103A0000C77AFB6803F23C43C3ED007AFB6803F21C
:103A10003C43D3ED007A9FED777AF4EEC77AF1EE6E
:103A200010FAE5DC0DE0FB6803F23C43D3ED007ACD
:103A30009FED707A77EE877AFB6803F23C43C3ED23
:103A4000007AFB6803F23C43D3ED007AF5EEC07ACE
:103A5000F1EE10FAE7D4FB6803F5886393ED007A82
:103A6000FB6803F22C43D3ED006AFB6803F5906317
:103A7000D3ED007A66EEA76AD7ED0A7A66EEA77AEA
:103A800077EE277AFB6803F58863C3ED007A00239D
:103A900087F82730FB6803F58863D3ED007AF5EEED
:103AA000C07AF1EE10FA05DDFB6803F58863D3ED0B
:103AB000007A06E0FB6803F58863D3ED007AF1EE47
:103AC000677AFB6803F5916393ED007AF4EEC77AA9
:103AD000F1EE10FA08D5FB6803F588634FF0000299
:103AE0001A60012387F8273097F82730002B06D07B
:103AF000FB6803F284434FF07C521A604DE0FB6A8E
:103B0000002B06DDFB6803F284434FF000021A60CD
:103B100043E0FB6A002B06DAFB6803F284434FF0B4
:103B20007E521A6039E0FB6803F2844393ED007A19
:103B3000FB6803F22C43D3ED006AFB6803F588634E
:103B4000D3ED007A66EEA77A77EE277AFB6803F268
:103B50008443C3ED007AFB6803F28443D3ED007A1B
:103B6000B7EE007AF4EEC77AF1EE10FA05DDFB68E5
:103B700003F284434FF07E521A60FB6803F28443E1
:103B8000D3ED007AF5EEC07AF1EE10FA05D5FB68B8
:103B900003F284434FF000021A60FB68D3F820243C
:103BA000BB68D3F8AC30D31A07EE903AB8EEE77A98
:103BB000FB6803F28443D3ED007A77EE277AC7EDF2
:103BC000087A07E0D7ED087A9FED0A7A77EEC77A90
:103BD000C7ED087AD7ED087A9FED067AF4EEC77A3A
:103BE000F1EE10FAEEDC11E00000804A000080CA1D
:103BF000ABAAAA3E0000004BDB0FC940D7ED087A04
:103C00001FED047A77EE877AC7ED087AD7ED087A48
:103C1000F5EEC07AF1EE10FAF0D4FB6803F58A6392
:103C200053E9022310461946FDF758F80346FB6195
:103C300097ED077A5FED116AC7EE267AC7ED067A2F
:103C4000D7ED067A1FED157A67EE877A97ED077A3A
:103C500077EE677AC7ED057AD7ED057A5FED1B6AD7
:103C600087EEA67AD7ED067A77EE277AFB6803F21D
:103C70006443C3ED007AFB6803F58D6393ED007A2E
:103C8000FB6803F58D63D3ED006AFB6803F5886379
:103C900093ED006A5FED295AC6EE257A76EEE77A53
:103CA0005FED2D6A67EEA67A77EE677AFB6803F51B
:103CB0008D63C3ED007AD7ED087A1FED317A27EED8
:103CC000877ABB68D3ED037A27EE277A5FED376AF0
:103CD000C7EE267AFB6803F26C43C3ED007AD7ED9A
:103CE000067A1FED3B7A67EE877AFB6803F58E63F1
:103CF000C3ED007AFB6803F58D63D3ED007A1FED09
:103D0000427A27EE877ABB68D3ED037A67EE277A8B
:103D1000FB6803F27443C3ED007A00231846303782
:103D2000BD46BDE8B08300BF80B483B000AF78600B
:103D30000B467B807B681B78022B0FD07B681B783F
:103D4000622B0BD07B681B78C22B07D07B681B785B
:103D5000BA2B03D07B681B781A2B06D17B880A2BE1
:103D600001D9012302E0022300E0002318460C37AA
:103D7000BD465DF8047B704780B588B000AFF86041
:103D8000B9603B601346FB800023FB8300237B77F5
:103D9000BB68BB61BB6802337B610B23FB83BB68E1
:103DA0000A333B610A21B86804F034FA03467B7792
:103DB000FA88FB8B9A4201D20223DCE03B691B7834
:103DC0007A7F9A4201D00023D5E03B68FA8B1A80B3
:103DD000BB691B78C22B00F0C680C22B00F3CA80DF
:103DE000BA2B00F0C280BA2B00F3C480622B00F023
:103DF000BE80622B00F3BE80022B00F0BA801A2B2B
:103E000040F0B8807B691B781A467B695B781B029F
:103E10001A437B699B781B041A43FB68C3F8202470
:103E2000BB695A78FB6883F81C247B691B791AB23A
:103E30007B695B791BB21B021BB213431AB2FB688E
:103E4000A3F82824FB6893F81D34002B12D0FB68DC
:103E500003F22C434C4A1A6004F03EF9F0EE407A2B
:103E6000FB6803F23443C3ED007AFB68002283F859
:103E70001D246CE004F030F9F0EE407AFB6803F5A5
:103E80008663C3ED007AFB6803F5866393ED007AE1
:103E9000FB6803F23443D3ED007A77EE677AFB6870
:103EA00003F22C43C3ED007AFB6803F22C431B683A
:103EB0001846FCF701FB32A3D3E90023FCF7E4FD2D
:103EC0000346002B08D0FB6893F838340133DAB28C
:103ED000FB6883F8382424E0FB6803F22C43D3ED1D
:103EE000007AF5EEC07AF1EE10FA0DD5FB6803F218
:103EF0002C43254A1A60FB6893F838340133DAB250
:103F0000FB6883F838240CE0FB6893F83834002B06
:103F100007D0FB6893F83834013BDAB2FB6883F8CA
:103F20003824FB6893F83834052B08D9FB68002245
:103F300083F83824FA6A536943F008035361FB6835
:103F400003F586631A68FB6803F234431A60FA6A61
:103F5000B96AF868FFF754FCFB68D3F82024FB68C3
:103F6000C3F8242406E000BF04E000BF02E000BF65
:103F700000E000BF012318462037BD4680BD00BFCA
:103F8000FA7E6ABC7493683F17B7513880B58AB01F
:103F900002AFF860B9607A6000237B610023FB61A7
:103FA0000023BB6100237B82FB68D3F81024FB68ED
:103FB000C3F81424FB68D3F81434012B57D800231A
:103FC00077E0FA68BB6913441A1DFB68D3F8143410
:103FD0009BB219461046FFF7A7FE78617B69022B5A
:103FE00002D1BB69FB6147E07B69002B0AD1FB680A
:103FF000D3F814345A1EFB68C3F81424BB69013388
:10400000BB6134E0FA68BB691344191DFB68D3F83F
:1040100014349AB207F112007B680193BB680093D5
:104020000346F868FFF7A8FE78617B69012B0DD184
:104030007B8A1A46BB691344BB61FB68D3F814340E
:104040007A8A9A1AFB68C3F8142410E07B69022B61
:1040500002D1BB69FB610FE0BB690133BB61FB6847
:10406000D3F814345A1EFB68C3F8142400BFFB684D
:10407000D3F81434012BA4D8FB68D3F81434002BE4
:1040800012D0FB68181DFB681A1DFB69D118FB686C
:10409000D3F814341A460DF09DFAFB68D3F81424B3
:1040A000FB68C3F8102403E0FB680022C3F8102467
:1040B000002318462037BD4680BD80B584B000AFD0
:1040C00078607B68012283F804247B68D3F80C2491
:1040D0007B68D3F80834D31AFB60FB68002B17DD2C
:1040E0007B6803F501707B68D3F8083403F500732F
:1040F0007A6813440433FA6819460DF06BFAFA68CB
:104100007B68C3F80C247B680022C3F8082403E012
:104110007B680022C3F80C2400BF1037BD4680BD69
:1041200080B584B000AF78607B681B681B68DB6972
:1041300003F01003102B4ED17B681B681B68102204
:104140001A627B681B685B6F1B685B689AB27B684E
:10415000D3F818349BB213449BB2C3F50073FB81B0
:10416000FB89B3F5007F08D97B680022C3F81024CF
:104170007B680022C3F818242DE07B68D3F8103444
:104180009AB2FB891344BB81BB89B3F5007F22D867
:104190007B68D3F810347A681344181D7B681B6859
:1041A0005A6D7B68D3F818341344FA8919460DF018
:1041B00011FABA897B68C3F810247B681B685B6FAF
:1041C0001B685B68C3F500727B68C3F818247B68C2
:1041D000012283F805241037BD4680BD80B584B028
:1041E00000AF78607B68D3F818349BB2C3F5807356
:1041F000FB817B68D3F810349AB2FB891344BB81EE
:10420000BB89B3F5007F1DD87B68D3F810347A687A
:104210001344181D7B681B685A6D7B68D3F81834EB
:104220001344FA8919460DF0D5F9BA897B68C3F8A9
:1042300010247B684FF48072C3F818247B68012235
:1042400083F8052400BF1037BD4680BD80B584B01B
:1042500000AF78607B68D3F818349BB2C3F5007365
:10426000FB817B68D3F810349AB2FB891344BB817D
:10427000BB89B3F5007F1CD87B68D3F810347A680B
:104280001344181D7B681B685A6D7B68D3F818347B
:104290001344FA8919460DF09DF9BA897B68C3F871
:1042A00010247B680022C3F818247B68012283F85D
:1042B000052400BF1037BD4680BD000080B584B026
:1042C00000AF786039607B68012283F804247B6842
:1042D0000022C3F818247B6803F58A6319464FF05F
:1042E00000024FF0000341E902237B6803F23C43E4
:1042F0004FF000021A607B6803F588634FF00002FC
:104300001A607B6803F264434FF000021A607B6816
:1043100003F58D634FF000021A607B6803F26C4373
:104320004FF000021A607B6803F274434FF0000202
:104330001A607B6803F284434FF000021A607B68C6
:104340000022C3F820247B680022C3F824247B6861
:10435000012283F81D247B6803F22C43304A1A6043
:104360007B6803F58F634FF000021A603B68986822
:104370003B689B8A0122194608F08CFE6423FB608F
:10438000FB6807EE903AF8EEE77A9FED267AF4EEB6
:10439000C77AF1EE10FA05D5FB6807EE903AF8EE11
:1043A000E77A01E0DFED1F7AC7ED027AD7ED027AF6
:1043B00077EEA77A7B6803F27C43C3ED007A7B68D3
:1043C00003F27C4393ED007A7B6803F27C43D3EDE8
:1043D000007A67EE277AB5EE007A67EE877A7B6817
:1043E00003F59063C3ED007A7B6803F22C43D3EDB1
:1043F000007AB6EE007A27EE877A7B6803F5906341
:10440000D3ED007A67EE277A7B6803F59163C3EDFD
:10441000007A03F0C9FE00BF1037BD4680BD00BF63
:1044200017B7513800007A4380B584B000AFF86008
:10443000B9607A601A21F868FFF7C8F97A68B96834
:10444000F868FFF7A3FDFB6893F8053483F00103D8
:10445000DBB2002B13D0FB68B3F8063401339AB2F9
:10446000FB68A3F80624FB68B3F80634B3F57A7F3B
:104470000DD97A68536943F00803536107E0FB687C
:104480000022A3F80624FB68002283F8052400BF5D
:104490001037BD4680BD000080B483B000AF7860A7
:1044A00039607B684FF07A529A647B68034ADA6419
:1044B00000BF0C37BD465DF8047B70479A99894070
:1044C00080B582B000AF786039607B684FF0000241
:1044D0005A607B684FF000029A607B684FF00002E0
:1044E0001A627B684FF000025A627B684FF000024C
:1044F0001A637B684FF000025A637B684FF000023A
:104500009A637B6800221A7039687868FFF7C4FFE5
:1045100000BF0837BD4680BD80B584B000AFF860ED
:10452000B9607A60FB681B78002B39D172B600BF86
:10453000FB684FF000021A62FB684FF000025A62FB
:10454000FB684FF000021A63FB684FF000025A63E9
:10455000FB684FF000029A63FB68012283F8642035
:10456000FB680022A3F86620FB684FF000021A6582
:10457000FB684FF000025A65FB6800229A65FB68F1
:104580000022DA65BB689B690121B86898477B689F
:104590009B6978689847FB6801221A7062B600E050
:1045A00000BF1037BD4680BD80B584B000AFF86055
:1045B000B9607A60FB681B7883F00103DBB2002BE3
:1045C00023D172B600BFFB684FF000021A62FB688D
:1045D0004FF000025A62FB684FF000021A63FB685A
:1045E0004FF000025A63FB684FF000029A637B6849
:1045F0005B6978689847FB6800221A70BB689B6902
:104600000021B868984762B600E000BF1037BD4689
:1046100080BD000080B58EB000AF786187ED040AE0
:10462000C7ED030A87ED021A79604FF000037B6241
:104630004FF000033B627B69D3ED037A7B6993ED16
:10464000047A7B69D3ED056A07F1200207F12403A0
:1046500011461846B0EE661AF0EE470AB0EE670A49
:1046600003F0FAFDD7ED097A97ED087A07F1180201
:1046700007F11C031146184697ED021AF0EE470A9F
:10468000B0EE670A03F00CFEBA697B691A627B69B7
:1046900093ED097A7B69D3ED096A7B69D3ED087ADA
:1046A00076EEE77ADFED6E6A67EEA67A77EE677AE6
:1046B0007B69C3ED097AFA697B699A627B6993ED3C
:1046C0000B7A7B69D3ED0B6A7B69D3ED0A7A76EEC0
:1046D000E77ADFED636A67EEA67A77EE677A7B6941
:1046E000C3ED0B7A7B699B681846FBF7E5FE024633
:1046F0000B46FBF783FD02460B46104619464FF06A
:104700000002584BFCF75AF802460B464FF00000E7
:104710005549FCF753F802460B4610461946FCF77C
:10472000BDF90346FB6297ED0B7AD7ED047A67EE8D
:10473000277AC7ED0D7A97ED0B7AD7ED037A67EEFE
:10474000277AC7ED0C7AD7ED0D7A27EEA77AD7ED49
:104750000C7A67EEA77A77EE277AB0EE670A0CF04C
:1047600047FFB0EE407ADFED416AC6EE877AC7EDCB
:104770000A7AD7ED0A7AB7EE007AF4EEC77AF1EE4C
:1047800010FA0FD597ED0D7AD7ED0A7A67EE277AF2
:10479000C7ED0D7A97ED0C7AD7ED0A7A67EE277A96
:1047A000C7ED0C7A7B6903F168027B696C331946AB
:1047B000104697ED021AD7ED0C0A97ED0D0A03F09B
:1047C000AEFD7B69D3ED1A7A7B6993ED1B7A7B6929
:1047D00003F13C007B6903F140017B6944331A46D5
:1047E000F0EE470AB0EE670A03F0D6FD0346002B51
:1047F00032D17B685B687A69D2ED0F7A9FED1C7AC3
:1048000067EE877AFCEEE77A17EE902A92B21146AD
:10481000786898477B689B687A69D2ED107A9FED3B
:10482000147A67EE877AFCEEE77A17EE902A92B256
:104830001146786898477B68DB687A69D2ED117A0F
:104840009FED0B7A67EE877AFCEEE77A17EE902AF7
:1048500092B211467868984700BF3837BD4680BD90
:104860000AD7233C000008400000F03F0C9E523F56
:104870000000FA4480B596B000AFF86187ED060AF3
:10488000C7ED050A87ED041AC7ED031AB9607A600F
:104890003B60FB69D3ED037AFB6993ED047AFB6916
:1048A000D3ED056A07F1300207F1340311461846CB
:1048B000B0EE661AF0EE470AB0EE670A03F0CCFCE1
:1048C000D7ED0D7A97ED0C7A07F1280207F12C034A
:1048D0001146184697ED041AF0EE470AB0EE670A43
:1048E00003F0DEFCFB69D3ED027A9FEDBB7A67EE45
:1048F000877AC7ED137AF7EE006A97ED137AC6EE62
:10490000877AC7ED127AD7ED0B7A97ED067A77EEB4
:10491000677AC7ED117AD7ED0A7A97ED057A77EEC7
:10492000677AC7ED107AAD4A3B6C1360AC4A7B6C7A
:1049300013603B681B6B002B39D1D7ED107AF5EE75
:10494000C07AF1EE10FA0CDDD7ED107A9FEDA57A62
:10495000F4EEC77AF1EE10FA4CBF01230023DBB26C
:104960000BE0D7ED107A9FEDA07AF4EEC77AF1EE66
:1049700010FACCBF01230023DBB2002B14D0FB695B
:10498000DB6D5A1CFB69DA65FB69DB6D132B0ED9F5
:10499000FB691422DA65FB694FF000021A65FB69B6
:1049A0004FF000025A6502E0FB690022DA65FB69FC
:1049B00093ED147AFB69D3ED126AD7ED117A66EEA6
:1049C000A77A77EE277A97ED127A67EE277AC7ED06
:1049D000157AFB6993ED157AFB69D3ED126AD7ED71
:1049E000107A66EEA77A77EE277A97ED127A67EE5D
:1049F000277AC7ED147AD7ED157A27EEA77AD7ED87
:104A0000147A67EEA77A77EE277AB0EE670A0CF091
:104A1000EFFDB0EE407ADFED756AC6EE877AC7ED3E
:104A20000F7A734AFB6B1360D7ED0F7AB7EE007AFB
:104A3000F4EEC77AF1EE10FA24D597ED157AD7ED9A
:104A40000F7A67EE277AC7ED157A97ED147AD7EDCE
:104A50000F7A67EE277AC7ED147AFB69D3ED147AE3
:104A60009FED647A67EE877AFB69C3ED147AFB6980
:104A7000D3ED157A9FED5F7A67EE877AFB69C3ED18
:104A8000157A1CE13B681B6B002B40F3EA803B6E00
:104A900003F58D63D3ED007A9FED577A77EE677A51
:104AA000F5EEC07AF1EE10FA09DD3B6E03F58D6389
:104AB000D3ED007A9FED507A77EE677A0AE03B6E8D
:104AC00003F58D63D3ED007A9FED4B7A77EE677A2D
:104AD000F1EE677A3B6893ED127AF4EEC77AF1EE65
:104AE00010FA40F1BE807B681B69C3F3C003DBB2E0
:104AF000012B15D1FB69DB6D5A1CFB69DA65FB697B
:104B0000DB6D312B40F2DA80FB693222DA65FB691A
:104B10004FF000021A65FB694FF000025A65CDE0C4
:104B20007B681B69C3F30013DBB2012B68D1D7ED9F
:104B3000107AF5EEC07AF1EE10FA09DDD7ED107AB1
:104B4000B0EE007AF4EEC77AF1EE10FA09D457E02D
:104B5000D7ED107AB8EE007AF4EEC77AF1EE10FADB
:104B60004EDDFB69DB6D5A1CFB69DA65FB69DB6DA9
:104B7000312B03D9FB693222DA6571E0FB6993EDD1
:104B8000147AFB69D3ED136A3B6E03F22C43D3ED29
:104B9000007A66EEA76AD7ED117A66EEA77A77EE0D
:104BA000277AFB69C3ED147AFB6993ED157AFB69EB
:104BB000D3ED136A3B6E03F22C43D3ED007A66EE1D
:104BC000A76AD7ED107A66EEA77A77EE277AFB69A7
:104BD000C3ED157A44E000BF3BAA2A3F401A0020EB
:104BE000441A00200AD7233C0AD723BC0C9E523F0C
:104BF0003C1A0020A4707D3F000000000000FA4431
:104C0000FB6993ED147AFB69D3ED136A3B6E03F2F3
:104C10002C43D3ED007A66EEA76AD7ED117A66EEE3
:104C2000A77A77EE277AFB69C3ED147AFB6993EDD7
:104C3000157AFB69D3ED136A3B6E03F22C43D3ED77
:104C4000007A66EEA76AD7ED107A66EEA77A77EE5D
:104C5000277AFB69C3ED157AFB690022DA652DE03E
:104C60002CE0FB6993ED147AFB69D3ED136A3B6E7C
:104C700003F22C43D3ED007A66EEA76AD7ED117AE2
:104C800066EEA77A77EE277AFB69C3ED147AFB69A3
:104C900093ED157AFB69D3ED136A3B6E03F22C4357
:104CA000D3ED007A66EEA76AD7ED107A66EEA77AA2
:104CB00077EE277AFB69C3ED157A00E000BF3B6E03
:104CC00003F22C4393ED007AD7ED037A67EE277A4F
:104CD00097ED047A77EE277AC7ED0E7A07F1200276
:104CE00007F124031146184697ED0E1AD7ED140A62
:104CF00097ED150A03F013FBBA6AFB691A62FA6AA8
:104D0000FB699A62D7ED097A97ED087AFB6903F19E
:104D10003C00FB6903F14001FB6944331A46F0EEA5
:104D2000470AB0EE670A03F037FB0346002B32D187
:104D3000BB685B68FA69D2ED0F7A1FED507A67EEB7
:104D4000877AFCEEE77A17EE902A92B21146B8689D
:104D50009847BB689B68FA69D2ED107A1FED597AC3
:104D600067EE877AFCEEE77A17EE902A92B2114648
:104D7000B8689847BB68DB68FA69D2ED117A1FED15
:104D8000617A67EE877AFCEEE77A17EE902A92B2A4
:104D90001146B868984700BF5837BD4680BD00BF70
:104DA00080B586B000AFF860B9601346FB80FB6841
:104DB000D3F80C329AB2FB881344FB82FB8AB3F51A
:104DC000807F28D8FB68D3F80C3203F58073FA682B
:104DD00013440433FA88B96818460CF0FBFBFA8ACE
:104DE000FB68C3F80C22FB68002283F80422FB68EE
:104DF000D3F80C22FB68C3F80822FB681868FB682C
:104E000003F58271FB68D3F808329BB21A460BF0A7
:104E100031F8002301E04FF0FF3318461837BD4644
:104E200080BD80B598B000AFF8607A603B600B46FB
:104E30007B8107F15C0300210A461A800A469A70BA
:104E40000023BB84B7F90A301B021AB27B891B0A04
:104E50009BB21BB213431BB29BB2A7F85C3007F1A5
:104E6000140300221A605A609A60DA60BB6E1B68F5
:104E7000002B1ED07B6803F26443D3ED007AF1EE81
:104E8000677AB0EE670A03F018FEF0EE407AC7EDDD
:104E9000057A7B6803F58D63D3ED007AF1EE677ACE
:104EA000B0EE670A03F009FEF0EE407AC7ED067A2D
:104EB00019E07B6803F26443D3ED007AB0EE670A31
:104EC00003F0FBFDF0EE407AC7ED057A7B6803F551
:104ED0008D63D3ED007AB0EE670A03F0EEFDF0EEDD
:104EE000407AC7ED067A3B681B691A063B681B6966
:104EF0001B0203F47F031A433B681B691B0A03F47C
:104F00007F431A433B681B691B0E1343FB613B68DD
:104F10005B691A063B685B691B0203F47F031A4353
:104F20003B685B691B0A03F47F431A433B685B6978
:104F30001B0E13433B62102387F85E3007F12803F2
:104F400007F15C021268114619800233120C1A70C4
:104F500007F12803033397F85E2007F11401184680
:104F60000CF038FB97F85E3003339AB207F1280350
:104F70001146184603F04EFD0346BB8497F85E3099
:104F8000033307F128021344BA8C1A8097F85E3075
:104F900005339AB207F128031946F868FFF700FFB6
:104FA000002318466037BD4680BD80B485B000AF91
:104FB00078600B467B807B681B781BB21B021AB2A1
:104FC0007B6801331B781BB213431BB2FB81FB8947
:104FD000B3F5804F0ED0FB8944F20102934209D011
:104FE000FB8944F20202934204D0FB8944F203029B
:104FF00093420AD17A887B6802331B7805339A4240
:1050000001D3012302E0022300E0002318461437F5
:10501000BD465DF8047B704780B58AB002AFF8608A
:10502000B9603B601346FB800023FB830023BB83F6
:10503000BB68BB61BB699B780533FB83FA88FB8B3C
:105040009A4201D20223D7E0BB699B780333BA6846
:1050500013447B61BB699B7803339BB21946B868E4
:1050600003F0D8FC0346BB837B691B889BB2BA8BD9
:105070009A4201D00023BFE0BB6803333B61BB69A8
:105080001B889BB21BB21B021AB2BB691B889BB266
:105090001B0A9BB21BB213431BB29AB2BB691A80A4
:1050A000BB691B889BB2A3F58043032B00F29F8052
:1050B00001A252F823F000BFC95000083551000882
:1050C00075510008B5510008BB699B780C2B01D0C5
:1050D000002391E0BB691B8899B2BB6A0093FB6A0D
:1050E0003A6BF868FFF79DFEFB680322A3F81C22C9
:1050F0003B691B6800EE103A03F0DFFCF0EE407AEB
:10510000FB68C3ED887A3B695B6800EE103A03F0F8
:10511000D4FCF0EE407AFB68C3ED897A3B699B686A
:1051200000EE103A03F0C9FCF0EE407AFB68C3EDE4
:105130008A7A5DE0BB699B78042B01D000235BE099
:10514000BB691B8899B2BB6A0093FB6A3A6BF8682B
:10515000FFF767FEFB680222A3F81C223B691B686D
:1051600000EE103A03F0A9FCF0EE407AFB68C3EDC4
:10517000887A3DE0BB699B78042B01D000233BE09B
:10518000BB691B8899B2BB6A0093FB6A3A6BF868EB
:10519000FFF747FEFB680122A3F81C223B691B684E
:1051A00000EE103A03F089FCF0EE407AFB68C3EDA4
:1051B000897A1DE0BB691B8899B2BB6A0093FB6AC0
:1051C0003A6BF868FFF72DFEFB68012283F82E2268
:1051D0003B6B03F58D631A68FB68C3F824223B6BB5
:1051E00003F264431A68FB68C3F8202200E000BFA2
:1051F0003B68FA8B1A80012318462037BD4680BDD4
:1052000080B58CB004AFF860B9607A603B60002371
:105210007B610023FB610023BB6100237B82FB6871
:10522000D3F81022FB68C3F81422FB68D3F81432B9
:10523000002B59D1002379E0FA68BB6913441A1D89
:10524000FB68D3F814329BB219461046FFF7ADFE47
:1052500078617B69022B02D1BB69FB6149E07B6904
:10526000002B0AD1FB68D3F814325A1EFB68C3F82E
:105270001422BB690133BB6136E0FA68BB69134491
:10528000191DFB68D3F814329AB207F112003B687B
:1052900002937B680193BB6800930346F868FFF7AD
:1052A000BBFE78617B69012B0DD17B8A1A46BB69F5
:1052B0001344BB61FB68D3F814327A8A9A1AFB68EC
:1052C000C3F8142210E07B69022B02D1BB69FB6199
:1052D0000FE0BB690133BB61FB68D3F814325A1E7F
:1052E000FB68C3F8142200BFFB68D3F81432012B0B
:1052F000A2D8FB68D3F81432002B12D0FB68181D1B
:10530000FB681A1DFB69D118FB68D3F814321A46E2
:105310000CF060F9FB68D3F81422FB68C3F8102284
:1053200003E0FB680022C3F8102200231846203750
:10533000BD4680BD80B584B000AFF860B9607A60CA
:105340003B607B685B69002B6FD17B6893F82030F2
:10535000DBB2012B0ED1BB68D3F8A030002B09D1F2
:105360007B680322DA737B681B6BBA68B96978685B
:10537000984772E07B6893F82030DBB2012B13D1A1
:10538000BB68D3F8A030012B0ED1BB68D3F8A43092
:10539000002B09D17B680422DA737B681B6BBA6827
:1053A000B9697868984758E07B6893F82030DBB299
:1053B000012B19D1BB68D3F8A030012B14D1BB68E5
:1053C000D3F8A430012B0FD1FB68B3F81C321A4676
:1053D000BB681A637B680222DA737B681B6BBA684E
:1053E000B9697868984738E07B6893F82030DBB279
:1053F000022B32D1BB68D3F8A030012B2DD1BB6872
:10540000D3F8A430012B28D1BB681B6BFA68B2F823
:105410001C22934221D07B680122DA737B681B6BCC
:10542000BA68B9697868984717E0FB6893F82E3234
:10543000002B12D07B6893F82030DBB2012B0CD10B
:105440007B680622DA73FB68002283F82E227B68D1
:105450001B6BBA68B969786898477B6893F8203005
:10546000DBB2022B40F0FC80BB681B68002B00F015
:105470008880FB68D3ED887AF1EE677A3B68C3EDEC
:10548000047A3B6893ED047ABB68D3ED097AF1EEB8
:10549000677AB4EEE77AF1EE10FA0BDD3B68D3EDF4
:1054A000047AF5EEC07AF1EE10FACCBF01230023A6
:1054B000DBB20AE0BB68D3ED097AF5EEC07AF1EE13
:1054C00010FA4CBF01230023DBB2002B02D0DFED2A
:1054D000677A15E03B6893ED047ABB68D3ED097AEF
:1054E000F1EE677AB4EEE77AF1EE10FA03DD3B688D
:1054F000D3ED047A04E0BB68D3ED097AF1EE677A64
:105500003B68C3ED047ABB6893ED087AFB68D3ED82
:10551000896ABB68D3ED087AF1EE677AF4EEE76A40
:10552000F1EE10FA03DDFB68D3ED897A04E0BB6885
:10553000D3ED087AF1EE677AF4EEC77AF1EE10FA5D
:1055400005DDBB68D3ED087AF1EE677A15E0FB68FC
:1055500093ED897ABB68D3ED087AF1EE677AB4EE01
:10556000E77AF1EE10FA05DDFB68D3ED897AF1EE0A
:10557000677A02E0BB68D3ED087A3B68C3ED057A31
:1055800063E0BB6893ED097AFB68D3ED887AF5EEAA
:10559000C07AF1EE10FA03DDFB68D3ED887A01E002
:1055A000DFED327AF4EEC77AF1EE10FA02DDBB6875
:1055B0005B6A0DE0FB68D3ED887AF5EEC07AF1EE18
:1055C00010FA03DDFB68D3F8203201E04FF000034E
:1055D0003A681361BB6893ED087AFB68D3ED896A7A
:1055E000BB68D3ED087AF1EE677AF4EEE76AF1EE84
:1055F00010FA03DDFB68D3ED897A04E0BB68D3EDD4
:10560000087AF1EE677AF4EEC77AF1EE10FA03DD6C
:10561000BB68D3ED087A15E0FB6893ED897ABB6827
:10562000D3ED087AF1EE677AB4EEE77AF1EE10FA8C
:1056300003DDFB68D3ED897A04E0BB68D3ED087A1B
:10564000F1EE677A3B68C3ED057AFB68D3F8282250
:105650003B68DA613B689B6D7A68B968386898473F
:10566000002318461037BD4680BD00BF0000000073
:1056700080B584B000AF78607B68012283F8042293
:105680007B68D3F80C227B68D3F80832D31AFB600E
:10569000FB68002B17DD7B6803F582707B68D3F80D
:1056A000083203F580737A6813440433FA681946A4
:1056B0000BF090FFFA687B68C3F80C227B6800222D
:1056C000C3F8082203E07B680022C3F80C2200BF65
:1056D0001037BD4680BD80B584B000AF78607B6870
:1056E0001B681B68DB6903F01003102B52D17B6829
:1056F0001B681B6810221A627B681B685B6F1B6843
:105700005B689AB27B68D3F818329BB213449BB2A1
:10571000C3F58073FB81FB89B3F5007F08D97B68F3
:105720000022C3F810227B680022C3F8182231E05F
:105730007B68D3F810329AB2FB891344BB81BB89D2
:10574000B3F5807F26D87B68D3F810327A6813448B
:10575000181D7B681B685A6D7B68D3F81832134498
:10576000FA8919460BF036FFBA897B68C3F8102214
:105770007B681B685B6F1B685B68C3F580727B6826
:10578000C3F818227B68012283F805227B68002277
:10579000A3F82C221037BD4680BD80B584B000AF81
:1057A00078607B68D3F818329BB2C3F18003FB8129
:1057B0007B68D3F810329AB2FB891344BB81BB8952
:1057C000B3F5807F20D87B68D3F810327A68134411
:1057D000181D7B681B685A6D7B68D3F81832134418
:1057E000FA8919460BF0F6FEBA897B68C3F81022D5
:1057F0007B680022C3F818227B68012283F8052207
:105800007B680022A3F82C2200BF1037BD4680BD64
:1058100080B584B000AF78607B68D3F818329BB253
:10582000C3F58073FB817B68D3F810329AB2FB8991
:105830001344BB81BB89B3F5807F20D87B68D3F844
:1058400010327A681344181D7B681B685A6D7B6898
:10585000D3F818321344FA8919460BF0BBFEBA8903
:105860007B68C3F810227B680022C3F818227B688B
:10587000012283F805227B680022A3F82C2200BFB6
:105880001037BD4680BD80B586B002AFF860B96004
:105890007A603B60FB68B3F82C3201339AB2FB6844
:1058A000A3F82C22FB68B3F82C32B3F57A7F04D925
:1058B000FB684FF47A72A3F82C223B687A68B968C7
:1058C000F868FFF79DFCFB690093BB697A68B968CB
:1058D000F868FFF72FFD00BF1037BD4680BD80B4CC
:1058E00083B000AF78607B680022C3F808227B6831
:1058F000002283F804227B68002283F805227B685B
:105900000022C3F818227B680022C3F808227B68B3
:105910000022C3F80C227B680022C3F810227B68A7
:105920000022C3F814227B680222A3F81C227B68A1
:105930004FF00002C3F820227B684FF00002C3F84A
:1059400024227B684FF00002C3F828227B680022E3
:1059500083F82E2200BF0C37BD465DF8047B7047EC
:1059600080B485B000AFF860B9607A603B603B6896
:10597000DA6AFB681A603B680122C3F8A82000BFFE
:105980001437BD465DF8047B704780B485B000AF26
:10599000F860B9607A6000BF1437BD465DF8047BDB
:1059A0007047000080B582B000AF78607B6803F577
:1059B000805303F23C53D3ED007A9FED287A77EEC3
:1059C000877A7B6803F5805303F23C53C3ED007A7A
:1059D0007B6803F5805303F23C53D3ED007A9FEDCF
:1059E000207AF4EEC77AF1EE10FA11DB7B6803F54A
:1059F000805303F23C53D3ED007A9FED197A77EE92
:105A0000C77A7B6803F5805303F23C53C3ED007AF9
:105A10007B6803F58053D3F808257B6803F5A4530E
:105A20000833796801F5805101F5A761D1ED007A5D
:105A3000796801F5805101F23C5191ED007A796865
:105A40002C31B0EE471ADFED070AB0EE670A1846B0
:105A5000904700BF0837BD4680BD00BFBEB5A43B20
:105A6000DB0FC9400000000080B400AF044B07EE1C
:105A7000903AB0EE670ABD465DF8047B704700BF00
:105A80000000C04180B483B000AF78607B68002222
:105A900083F820207B68002283F821207B68002285
:105AA00083F822207B6800221A617B6800225A61F9
:105AB0007B687A681833103292E8030083E80300A9
:105AC00000BF0C37BD465DF8047B704780B483B0DF
:105AD00000AF78607B685B697B6800225A617B68F5
